S0170000426567696E6E657250726F6A6563742E737265630C
S214000000D0060020A90100003302000033020000E1
S21400001000000000000000000000000000000000DB
S2140000200000000000000000000000003302000096
S2140000300000000000000000330200003302000051
S21400004033020000330200003302000033020000D7
S21400005033020000330200003302000033020000C7
S21400006033020000330200003302000033020000B7
S21400007033020000330200003302000033020000A7
S2140000803302000033020000330200003302000097
S2140000903302000033020000330200003302000087
S2140000A03302000033020000330200003302000077
S2140000B03302000033020000E7250000012600009E
S2140000C01B26000035260000330200003302000025
S2140000D03302000033020000330200003302000047
S2140000E03302000033020000330200003302000037
S2140000F03302000010B540F21804C2F20004237860
S21400010063B940F20003C0F200032BB144F22000B2
S214000110C0F2800000E000BF0123237010BDC0467F
S21400012040F20003C0F2000310B54BB140F21C01D0
S21400013044F22000C2F20001C0F2800000E000BFDE
S21400014044F22000C0F28000036803B910BD40F2FC
S2140001500003C0F20003002BF8D09847F6E7C0462D
S21400016080B500AF43F20023C4F200030022DA6633
S2140001704EF20013CEF2000340F280220021995086
S2140001804EF20013CEF2000340F284220021995072
S214000190C046BD4680BD80B500AF00F05FFBFFF7F0
S2140001A0DFFFC046BD4680BD80B582B000AF42F2DC
S2140001B0DC73C0F200037B6040F20003C2F200036F
S2140001C03B607A683B689A420FD007E03B681A1D8E
S2140001D03A607A68111D796012681A603A6840F2CF
S2140001E01803C2F200039A42F0D340F21803C2F298
S2140001F000033B6004E03B681A1D3A6000221A6068
S2140002003A6840F2D003C2F200039A42F3D340F2B7
S2140002100003C0F200037B604EF60053CEF20003EC
S2140002207A687F218A439A6002F020FA00F0C9FDBE
S214000230FEE780B500AFFEE780B584B000AFF8609B
S2140002407A600B23FB180A1C1A700B23FB181A780B
S214000250FB68203292007968D150C046BD4604B093
S21400026080BD80B582B000AF78607B68DB6908220D
S2140002701A437B68DA61C046BD4602B080BD80B5D1
S21400028084B000AFF8607A600B23FB180A1C1A7063
S2140002900B23FB181B78FA68DB01D31808337A683F
S2140002A01A60C046BD4604B080BD80B584B000AFBD
S2140002B0F8607A600B23FB180A1C1A700B23FB18D5
S2140002C01B78FA68DB01D31804337A681A60C046D4
S2140002D0BD4604B080BD80B584B000AFF8607A60DB
S2140002E00B23FB180A1C1A700B23FB181B78FA68E2
S2140002F0DB01D31818337A681A60C046BD4604B0CE
S21400030080BD80B584B000AFF8607A600B23FB1820
S2140003100A1C1A700B23FB181B78FA68DB01D3182B
S21400032014337A681A60C046BD4604B080BD90B5E6
S21400033085B000AF78600C0010001900FB1C221C72
S2140003401A70BB1C021C1A707B1C0A1C1A70FB1C41
S2140003501978BB1C1A780F23FB1878683024C9015B
S21400036041188A18121912781A700F23FB180F22D8
S214000370BA1812780F218A431A707B1C1B780F223A
S2140003801340D9B20F23FB180F22BA1812780A436B
S2140003901A70FB1C1A78BB1C1B7879683020D201B7
S2140003A08A18D3181B180F22BA1812781A70C0466B
S2140003B0BD4605B090BD90B585B000AF78600C0026
S2140003C010001900FB1C221C1A70BB1C021C1A70A1
S2140003D07B1C0A1C1A70FB1C1978BB1C1A780F238E
S2140003E0FB1878683024C90141188A181219127847
S2140003F01A700F23FB180F22BA1812780F210A4022
S2140004001A707B1C1B781B01D9B20F23FB180F2216
S214000410BA1812780A431A70FB1C1A78BB1C1B7891
S21400042079683020D2018A18D3181B180F22BA1800
S21400043012781A70C046BD4605B090BD90B585B01E
S21400044000AF78600C0010001900FB1C221C1A700C
S214000450BB1C021C1A707B1C0A1C1A70FB1C197829
S214000460BB1C1A780F23FB1878684024C901411872
S2140004708A18121912781A700F23FB180F22BA184E
S214000480127801218A431A707B1C19780F23FB18F7
S2140004900F22BA1812780A431A70FB1C1A78BB1C73
S2140004A01B7879684020D2018A18D3181B180F22AF
S2140004B0BA1812781A70C046BD4605B090BD80B511
S2140004C084B000AFF8607A600B23FB180A1C1A7021
S2140004D00B23FB181B78FA68DB01D31828337A68DD
S2140004E01A60C046BD4604B080BD80B582B000AF7D
S2140004F039601100FB1D021C1A70BB1D0A1C1A7005
S214000500BB1D1B78012B2BD0022B53D0002B79D18F
S2140005103A68FB1D197840F20023C6F20003180063
S214000520FFF7C3FE3B681B041B0C8022D2051A4350
S214000530FB1D197843F20023C4F200031800FFF7EE
S214000540BEFF3B681B0CC02212061A43FB1D19781F
S21400055043F20023C4F200031800FFF7B0FF5AE08E
S2140005603A68FB1D197840F20023C6F20003180013
S214000570FFF79BFE3B681B041A0C0023C4F2020321
S2140005801A43FB1D197843F20023C4F20003180037
S214000590FFF795FF3B681A0C0023CCF202031A43C0
S2140005A0FB1D197843F20023C4F200031800FFF77E
S2140005B086FF30E03A68FB1D197840F20023C6F249
S2140005C000031800FFF75BFE3B681B041B0C802231
S2140005D0D2051A43FB1D197843F20023C4F2000328
S2140005E01800FFF76CFF3B681B0CC02212061A436C
S2140005F0FB1D197843F20023C4F200031800FFF72E
S2140006005EFF08E042F2BC63C0F200034D22190010
S214000610002000F0EBFEC046BD4602B080BD80B5AF
S21400062082B000AF39601100FB1D021C1A70BB1DA2
S2140006300A1C1A70BB1D1B7853B13A68FB1D19784B
S21400064040F20023C6F200031800FFF744FE09E05C
S2140006503A68FB1D197840F20023C6F20003180022
S214000660FFF74FFEC046BD4602B080BD90B585B0D0
S21400067000AF786039607B685A090F23FB181A7040
S2140006807B68DAB20E23FB181F210A401A703B68FB
S21400069001330DD10E23FB181A780F23FB18197897
S2140006A043F20020C4F200000023FFF7C7FE35E047
S2140006B00E23FB181A780F23FB18197843F2002034
S2140006C0C4F200000123FFF7B9FE0E23FB181B78C7
S2140006D0012213408BB10E23FB181B785B08DAB29D
S2140006E03B68DCB20F23FB18197843F20020C4F2F3
S2140006F000002300FFF75FFE10E00E23FB181B78B8
S2140007005B08DAB23B68DCB20F23FB18197843F2B9
S2140007100020C4F200002300FFF709FEC046BD46D5
S21400072005B090BD80B582B000AF786039603A6899
S2140007307B6811001800FFF799FFC046BD4602B05F
S21400074080BD80B582B000AF0200FB1D1A70BB1DD5
S2140007500A1C1A70FB1D1B785B09D8B2FB1D1B78A0
S2140007601F22134001229A401100BB1D1B781A005D
S214000770FFF7BBFEC046BD4602B080BD80B582B066
S21400078000AF0200FB1D1A70BB1D0A1C1A70FB1D71
S2140007901B785B09D8B2FB1D1B781F221340012271
S2140007A09A401100BB1D1B781A00FFF738FFC046A1
S2140007B0BD4602B080BD80B500AF01F005F8C0466A
S2140007C0BD4680BD80B500AF41F60043C4F20003CD
S2140007D040220D211800FFF72FFD41F60043C4F21A
S2140007E0000343220A211800FFF726FD40F6000307
S2140007F0C4F200031800FFF734FDC046BD4680BDB6
S21400080080B500AF0323C0F2180319001820FFF7C5
S21400081089FF0323C0F2190319001920FFF782FF8E
S214000820C046BD4680BD80B582B002AFFFF7CAFFA6
S21400083040F23402C2F2000240F60041C4F2002147
S21400084040F28000C2F2000000230093102300F064
S214000850E1FBFFF7D5FFC046BD4680BD80B500AFC3
S214000860FFF7A9FF00210720FFF788FF02210720D6
S214000870FFF767FF01235B4219000720FFF752FFCF
S214000880FFF7D1FFC046BD4680BD80B584B000AF3F
S214000890F8607A600B23FB180A1C1A700B23FB18EF
S2140008A01B78FA68DB01D31808337A681A60C046EA
S2140008B0BD4604B080BD80B584B000AFF8607A60F5
S2140008C00B23FB180A1C1A700B23FB181B78FA68FC
S2140008D0DB01D31804337A681A60C046BD4604B0FC
S2140008E080BD80B584B000AFF8607A600B23FB183B
S2140008F00A1C1A700B23FB181B78FA68DB01D31846
S21400090018337A681A60C046BD4604B080BD80B50C
S21400091084B000AFF8607A600B23FB180A1C1A70CC
S2140009200B23FB181B78FA68DB01D31814337A689C
S2140009301A60C046BD4604B080BD90B585B000AF15
S21400094078600C0010001900FB1C221C1A70BB1CDF
S214000950021C1A707B1C0A1C1A70FB1C1978BB1C24
S2140009601A780F23FB1878683024C90141188A18B2
S214000970121912781A700F23FB180F22BA18127861
S2140009800F218A431A707B1C1B780F221340D9B2A2
S2140009900F23FB180F22BA1812780A431A70FB1C92
S2140009A01A78BB1C1B7879683020D2018A18D318B5
S2140009B01B180F22BA1812781A70C046BD4605B02A
S2140009C090BD90B585B000AF78600C00100019009F
S2140009D0FB1C221C1A70BB1C021C1A707B1C0A1CF7
S2140009E01A70FB1C1978BB1C1A780F23FB18786842
S2140009F03024C90141188A18121912781A700F2368
S214000A00FB180F22BA1812780F210A401A707B1CA6
S214000A101B781B01D9B20F23FB180F22BA181278C5
S214000A200A431A70FB1C1A78BB1C1B7879683020A6
S214000A30D2018A18D3181B180F22BA1812781A7007
S214000A40C046BD4605B090BD90B585B000AF786095
S214000A500C0010001900FB1C221C1A70BB1C021C88
S214000A601A707B1C0A1C1A70FB1C1978BB1C1A789F
S214000A700F23FB1878684024C90141188A181219F8
S214000A8012781A700F23FB180F22BA181278012159
S214000A908A431A707B1C19780F23FB180F22BA188A
S214000AA012780A431A70FB1C1A78BB1C1B787968EC
S214000AB04020D2018A18D3181B180F22BA181278B1
S214000AC01A70C046BD4605B090BD80B584B000AF74
S214000AD0F8607A600B23FB180A1C1A700B23FB18AD
S214000AE01B78FA68DB01D31828337A681A60C04688
S214000AF0BD4604B080BD80B582B000AF396011003D
S214000B00FB1D021C1A70BB1D0A1C1A70BB1D1B782D
S214000B10012B2BD0022B53D0002B79D13A68FB1D2A
S214000B20197840F20023C6F200031800FFF7C3FE50
S214000B303B681B041B0C8022D2051A43FB1D197848
S214000B4043F20023C4F200031800FFF7BEFF3B6821
S214000B501B0CC02212061A43FB1D197843F2002311
S214000B60C4F200031800FFF7B0FF5AE03A68FB1D16
S214000B70197840F20023C6F200031800FFF79BFE28
S214000B803B681B041A0C0023C4F202031A43FB1D25
S214000B90197843F20023C4F200031800FFF795FF0C
S214000BA03B681A0C0023CCF202031A43FB1D19788B
S214000BB043F20023C4F200031800FFF786FF30E07C
S214000BC03A68FB1D197840F20023C6F200031800AD
S214000BD0FFF75BFE3B681B041B0C8022D2051A4302
S214000BE0FB1D197843F20023C4F200031800FFF738
S214000BF06CFF3B681B0CC02212061A43FB1D1978BB
S214000C0043F20023C4F200031800FFF75EFF08E07B
S214000C1042F2D863C0F200034D221900002000F013
S214000C20E5FBC046BD4602B080BD80B582B000AFD1
S214000C3039601100FB1D021C1A70BB1D0A1C1A70BD
S214000C40BB1D1B7853B13A68FB1D197840F2002390
S214000C50C6F200031800FFF744FE09E03A68FB1DE1
S214000C60197840F20023C6F200031800FFF74FFE83
S214000C70C046BD4602B080BD90B585B000AF786076
S214000C8039607B685A090F23FB181A707B68DAB242
S214000C900E23FB181F210A401A703B6801330DD142
S214000CA00E23FB181A780F23FB18197843F200203E
S214000CB0C4F200000023FFF7C7FE35E00E23FB1842
S214000CC01A780F23FB18197843F20020C4F20000AC
S214000CD00123FFF7B9FE0E23FB181B7801221340F1
S214000CE08BB10E23FB181B785B08DAB23B68DCB2CC
S214000CF00F23FB18197843F20020C4F200002300EB
S214000D00FFF75FFE10E00E23FB181B785B08DAB2D5
S214000D103B68DCB20F23FB18197843F20020C4F2BC
S214000D2000002300FFF709FEC046BD4605B090BD93
S214000D3080B582B000AF786039603A687B68110091
S214000D401800FFF799FFC046BD4602B080BD80B5CB
S214000D5082B000AF0200FB1D1A70BB1D0A1C1A7081
S214000D60FB1D1B785B09D8B2FB1D1B781F221340A6
S214000D7001229A401100BB1D1B781A00FFF7BBFE2C
S214000D80C046BD4602B080BD80B582B000AF02004E
S214000D90FB1D1A70BB1D0A1C1A70FB1D1B785B0915
S214000DA0D8B2FB1D1B781F22134001229A40110067
S214000DB0BB1D1B781A00FFF738FFC046BD4602B0C1
S214000DC080BD80B582B000AFFFF7E5F942F24F6212
S214000DD0C0F2000240F28003C2F2000300211800B5
S214000DE000F097F940F28003C2F20003180000F00A
S214000DF076F902210A20FFF7AAFF02210B20FFF74F
S214000E00A6FF02211720FFF7A2FF02211B20FFF7F3
S214000E109EFF01235B4219000A20FFF789FF01238A
S214000E205B4219000B20FFF783FF01235B4219008A
S214000E301720FFF77DFF01235B4219001B20FFF7F9
S214000E4077FF00237B6000237B6091E000210A206F
S214000E50FFF79AFF022000F0C4F800210A20FFF7EF
S214000E6093FF022000F0BDF800210A20FFF78CFF58
S214000E70022000F0B6F800210A20FFF785FF0220C6
S214000E8000F0AFF8022000F0ACF8022000F0A9F85D
S214000E9001210A20FFF778FF00210720FFF774FFE3
S214000EA0FA2000F09EF801210720FFF76DFF0021D1
S214000EB00A20FFF769FF022000F093F8FA2000F0FE
S214000EC090F8022000F08DF801210B20FFF75CFF60
S214000ED000210720FFF758FFFA2000F082F80121D2
S214000EE00720FFF751FF00210B20FFF74DFF0220E0
S214000EF000F077F8FA2000F074F8022000F071F89D
S214000F0001211720FFF740FF00210720FFF73CFFD5
S214000F10FA2000F066F801210720FFF735FF0021D0
S214000F201720FFF731FF022000F05BF8FA2000F0F0
S214000F3058F8022000F055F801211B20FFF724FF87
S214000F4000210720FFF720FFFA2000F04AF80121D1
S214000F500720FFF719FF00211B20FFF715FF0220CF
S214000F6000F03FF8FA2000F03CF87B6801337B6025
S214000F707B68632B00DC69E7022000F032F8012171
S214000F800A20FFF701FF01210B20FFF7FDFE0121DC
S214000F901720FFF7F9FE01211B20FFF7F5FEFEE7FD
S214000FA080B584B000AF7860EFF31083FB60FA681A
S214000FB07B681A6072B6BFF35F8FC046BD4604B04A
S214000FC080BD80B584B000AF7860BFF35F8F7B686C
S214000FD01B68FB60FB6883F31088C046BD4604B000
S214000FE080BD90B583B000AF0200BB1D1A8040F2F2
S214000FF04403C2F200031C68BB1D1B88180000F0E7
S214001000B1FB03001900200000F0C1FBC046BD463E
S21400101003B090BD80B586B000AFF860B9607A6066
S2140010201A00BB1C1A80FB6843B1BB6833B17B68EF
S21400103023B1BB1C1B880BB1012300E000231A1C44
S21400104001231340D8B242F2F463C0F200033A22FE
S214001050190000F0CBF9FB6834331800BB1C1A8863
S2140010607B68190000F0D7F9030013B10D235B422B
S21400107031E0FB680833BA681100180000F0BBFFC7
S21400108003007B617B690BB17B6924E0FA6841F25F
S2140010904123C0F200035360FA6841F2B713C0F26E
S2140010A000031360FA6841F2F523C0F20003936070
S2140010B0FA6841F28333C0F20003D360FA6841F263
S2140010C05733C0F200031361FA6841F2C133C0F22D
S2140010D00003536100231800BD4606B080BD80B5EE
S2140010E082B000AF78607B685A1E9341D8B242F255
S2140010F0F463C0F200036122190000F077F97B6800
S2140011000833180000F0CDFF00231800BD4602B0DB
S21400111080BD80B584B000AFF8607A600B23FB1802
S2140011200A1C1A70FB685A1E9341D8B242F2F46346
S214001130C0F200038322190000F058F90B23FB18B5
S2140011401B78012B11D0022B1ED063BBFB687A687C
S2140011509A62FB68083318007B685A1E9341DBB21C
S2140011601A00012100F0FEFF20E0FB687A685A6250
S214001170FB68083318007B685A1E9341DBB21A00DE
S214001180022100F0EFFF11E0FB687A68DA62FB6884
S214001190083318007B685A1E9341DBB21A000321FD
S2140011A000F0E0FF02E00D235B4200E000231800A1
S2140011B0BD4604B080BD80B586B000AFF860B960AB
S2140011C0BB1D1A80FB687B617B6933B1BB6823B1AA
S2140011D0BB1D1B880BB1012300E000231A1C012352
S2140011E01340D8B242F2F463C0F2000340F23B125E
S2140011F0190000F0FBF87B6944229A5A7B694C215F
S2140012005B5A9A4202D01C235B4215E07B69BA689F
S2140012109A647B69BA1D4C2112885A527B69442213
S214001220002199527B6901221A637B6908331800F2
S21400123000F058FFBB1D1B881800BD4606B080BDD9
S21400124080B588B000AFF860B960BB1D1A801E2359
S214001250FB1800221A80FB68BB61BB6933B1BB6810
S21400126023B1BB1D1B880BB1012300E000231A1C11
S21400127001231340D8B242F2F463C0F2000340F2F6
S2140012805812190000F0B2F81023FB181800FFF7E8
S21400129087FEBB693433180000F061F903007B61F8
S2140012A01023FB181800FFF78CFE0FE0BB693433E1
S2140012B018001E23FB181B881E22BA18591C118002
S2140012C01A00BB689B18190000F0DBF81E23FB18F9
S2140012D01A887B699A4206D21E23FA18BB1D12880A
S2140012E01B889A42E2D31E23FB181B881800BD46B3
S2140012F008B080BDB0B584B000AF78607B68083BAE
S214001300FB60FB6844229A5AFB684C215B5A9A425F
S21400131018D0FB6808331C00FB689A6CFB684421F5
S2140013205B5A591C8DB2F96844200D52D3181B78AD
S2140013301900200000F0C2FEFB680833180000F019
S214001340D1FE04E0FB680833180000F0D8FEC04663
S214001350BD4604B0B0BD80B584B000AF78607B6891
S214001360083BFB60FB6800221A63FB685B6A23B1DC
S214001370FB685B6AFA6810009847C046BD4604B032
S21400138080BD80B584B000AF78600A00FB1C1A7080
S2140013907B68083BFB60FB6834331A00FB1C1B7839
S2140013A01900100000F0A3F8FB689B6A23B1FB68E5
S2140013B09B6AFA6810009847C046BD4604B080BDD8
S2140013C080B584B000AF78607B68083BFB60FB6844
S2140013D000221A63FB68DB6A23B1FB68DB6AFA68E3
S2140013E010009847C046BD4604B080BD80B584B0A6
S2140013F000AFB9607A600F23FB18021C1A700F2327
S214001400FB181B7801225340DBB203B100BEC04676
S214001410BD4604B080BD80B584B000AFF860B9604A
S2140014207A60FB682BB1BB681BB17B680BB10123EC
S21400143000E000231A1C01231340D8B242F21473B2
S214001440C0F2000328221900FFF7D0FF7B68013B9B
S2140014507A68134013B10D235B420EE07B685A1E78
S214001460FB685A60FB6800229A60FB689A68FB6813
S214001470DA60FB68BA681A6000231800BD4604B03C
S21400148080BD80B582B000AF786039607B681BB1E4
S2140014903B680BB1012300E000231A1C0123134014
S2140014A0D8B242F21473C0F2000340221900FFF7CC
S2140014B09DFF7B68DA687B689B689A4211D07B68E0
S2140014C01A687B6899687B685B680B40D3181A7843
S2140014D03B681A707B689B685A1C7B689A6000237E
S2140014E001E00A235B421800BD4602B080BD80B50D
S2140014F082B000AF78600A00FB1C1A707B685A1E28
S2140015009341D8B242F21473C0F20003512219007C
S214001510FFF76CFF7B681A687B68D9687B685B6836
S2140015200B40D318FA1C12781A707B68DA687B684E
S2140015309B68D21A7B685B689A4206D97B68DA6831
S2140015407B685B68D21A7B689A607B68DB685A1C8B
S2140015507B68DA6000231800BD4602B080BD80B507
S21400156082B000AF78607B685A1E9341D8B242F2D0
S2140015701473C0F2000367221900FFF737FF7B6879
S214001580DA687B689B68D31A1800BD4602B080BD37
S21400159080B582B000AF39601100BB1D021C1A80F6
S2140015A07B1D0A1C1A707B1D1B78043B042B54D829
S2140015B09A00334BD3181B689F46BB1D19883A68A0
S2140015C048F2A063C0F20103B2FBF3F34B431D33B2
S2140015D01E22B3FBF2F34FE0BB1D19883B6842F2B4
S2140015E01072B3FBF2F34B432C33FF3340F22C1252
S2140015F0B3FBF2F340E0BB1D19883B6840F2E832CB
S214001600B3FBF2F34B4340F6B73C634440F6B832C4
S214001610B3FBF2F330E0BB1D19883B686422B3FBD2
S214001620F2F34B4347F22F5C634447F23052B3FB6E
S214001630F2F321E0BB1D19883B680A22B3FBF2F3E4
S2140016404B4349F2DF32C0F204029A1849F2E03303
S214001650C0F20403B2FBF3F30EE0BB1D1B883A682E
S21400166053434CF2BF62C0F22D029A184CF2C0638C
S214001670C0F22D03B2FBF3F31800BD4602B080BDE6
S2140016805827000080B582B000AF39601100BB1D3E
S214001690021C1A807B1D0A1C1A707B1D1B78043BDB
S2140016A0042B4DD89A002E4BD3181B689F46BB1DA3
S2140016B019883A6848F2A063C0F20103B2FBF3F35C
S2140016C04B4302330322B3FBF2F36422534342E05C
S2140016D0BB1D19883B6842F21072B3FBF2F34B4312
S2140016E002330322B3FBF2F213009B009B185B004D
S2140016F031E0BB1D19883B6840F2E832B3FBF2F3D9
S2140017004B4302330322B3FBF2F324E0BB1D1988DC
S2140017103B686422B3FBF2F34B431D331E22B3FB3C
S214001720F2F318E0BB1D19883B680A22B3FBF2F3FC
S2140017304B432C33FF3340F22C12B3FBF2F30AE098
S214001740BB1D1B883A68534340F6B73C634440F6DB
S214001750B832B3FBF2F31800BD4602B080BDC046F7
S2140017606C27000080B582B000AF0200BB1D1A8057
S21400177040F60013C0F23D03BA1D10880722190078
S214001780FFF780FF03001800BD4602B080BD80B59D
S21400179082B000AF786039600139FDD8C046BD46DA
S2140017A002B080BD80B582B000AF786039607B68DB
S2140017B05A683B685B001E210B401A437B685A60E0
S2140017C0C046BD4602B080BD80B500AF45F20003FE
S2140017D0C4F2001300211800FFF7E4FF002000F019
S2140017E085F900F09AF800F0EFF800F059F800F0EC
S2140017F00CF91F2000F02DF8C046BD4680BD80B510
S21400180082B000AF78603960C0467B685B683A6833
S2140018101340002BF9D1C046BD4602B080BD80B54E
S21400182084B000AFF8607A600B23FB180A1C1A70AD
S2140018300B23FB181A78FB68083292007968D1509F
S214001840FB687D211800FFF7DAFFC046BD4604B0EE
S21400185080BD80B582B000AF78607B6801221340FF
S2140018605BB140F20512C0F2010241F60043C4F239
S214001870000300211800FFF7D2FFC046BD4602B0A5
S21400188080BD80B582B000AF78600A00FB1C1A707D
S2140018907B68FA1C12781A71C046BD4602B080BD3D
S2140018A080B582B000AF40F60003C4F200037B6050
S2140018B07B6801211800FFF7E4FFC046BD4602B072
S2140018C080BD80B582B000AF78600A00FB1C1A703D
S2140018D07B68FA1C12781A74C046BD4602B080BDFA
S2140018E080B584B000AF78607B68DB69FB60FB681E
S2140018F01B0A1F221340FB60FB681800BD4604B09D
S21400190080BD80B582B000AF786039607B683A6889
S214001910DA61C046BD4602B080BD80B582B000AF79
S21400192041F20043C4F200037B60BB1C00221A8015
S2140019307B681800FFF7D4FF0200BB1C1A80BB1C94
S2140019401B881B021A0041F600731A407B681100C0
S2140019501800FFF7D6FF7B6800211800FFF7B1FFDD
S214001960C046BD4602B080BD80B582B000AF78608C
S2140019707B681B691B09012213405A1E9341DBB288
S2140019801800BD4602B080BD80B582B000AF78605A
S2140019907B681B7EDBB2802252421343DAB27B683E
S2140019A01A76C046BD4602B080BD80B582B000AF94
S2140019B078600A00FB1C1A707B68FA1C12781A768C
S2140019C0C046BD4602B080BD80B582B000AF41F2D1
S2140019D00003C4F200037B607B6802211800FFF757
S2140019E0E4FFC0467B681800FFF7BEFF03001A003E
S2140019F001235340DBB2002BF4D17B681800FFF7BD
S214001A00C3FFC046BD4602B080BD80B582B000AF01
S214001A1041F20003C4F200037B60BB1C00221A8064
S214001A20C046BD4602B080BD80B582B000AF7860CB
S214001A307B689B79DBB21800BD4602B080BD80B5DE
S214001A4082B000AF78600A00FB1C1A707B68FA1C34
S214001A5012789A71C046BD4602B080BD80B584B08B
S214001A6000AF78600A00FB1C1A700F23FB187A6818
S214001A7092781A700F23FB18FA1C1B781278134002
S214001A80DAB20F23FB1803210A401A700F23FB1843
S214001A901B781800BD4604B080BD80B584B000AF8A
S214001AA078600A00FB1C1A700F23FB187A6892787D
S214001AB01A700F23FB180F22BA18127803218A43D4
S214001AC01A70FB1C1B7803221340D9B20F23FB1895
S214001AD00F22BA1812780A431A707B680F22BA18B7
S214001AE012789A70C046BD4604B080BD80B582B0FC
S214001AF000AF0200FB1D1A7040F20043C4F2000360
S214001B0003211800FFF7AAFF03001A00FB1D1B782D
S214001B1093421CD040F20043C4F20003FF21180099
S214001B20FFF78DFFFB1D1A7840F20043C4F2000356
S214001B3011001800FFF7B1FFC04640F20043C4F2A0
S214001B4000031800FFF770FF0300002BF5D0C04617
S214001B50BD4602B080BD80B582B000AF0200FB1D5E
S214001B601A70FB1D1B787F2B11D84EF20013CEF295
S214001B700003FA1D127852B25209F91D09780800BE
S214001B801F2101400120884001009200D150C0462C
S214001B90BD4602B080BD80B582B000AF0200FB1D1E
S214001BA01A70FB1D1B787F2B16D84EF20013CEF250
S214001BB00003FA1D127852B25209F91D097808007E
S214001BC01F21014001208840010020329200D150A0
S214001BD0BFF34F8FBFF36F8FC046BD4602B080BDC8
S214001BE080B582B000AF0200FB1D1A70FB1D1B788B
S214001BF07F2B12D84EF20013CEF20003FA1D127895
S214001C0052B25209F91D097808001F21014001202F
S214001C108840010060329200D150C046BD4602B0F6
S214001C2080BD80B582B000AF78603960C0467B6802
S214001C30DB693A681340002BF9D1C046BD4602B0B6
S214001C4080BD80B582B000AF786039607B68DB69A4
S214001C503A6813405A1E9341DBB21800BD4602B0E4
S214001C6080BD80B582B000AF78607B681B7EDBB23B
S214001C701A00012313405A1E9341DBB21800BD46DA
S214001C8002B080BD80B582B000AF78607B681B7EF6
S214001C90DBB25B08012213405A1E9341DBB21800E8
S214001CA0BD4602B080BD80B582B000AF78607B686C
S214001CB01B7EDBB29B08012213405A1E9341DBB207
S214001CC01800BD4602B080BD80B582B000AF786017
S214001CD07B681B7EDBB2DB09012213405A1E934150
S214001CE0DBB21800BD4602B080BD80B582B000AF42
S214001CF078607B6880221A76C046BD4602B080BDFA
S214001D0080B582B000AF78607B6801229A75C046C5
S214001D10BD4602B080BD80B582B000AF78607B68FB
S214001D209B7DDBB21A00012313405A1E9341DBB29F
S214001D301800BD4602B080BD80B582B000AF7860A6
S214001D400A00FB1C1A70FB1C1B7801225340DBB2F6
S214001D501BB17B6801221A7502E07B6801229A7526
S214001D60C046BD4602B080BD80B582B000AF786088
S214001D707B6801221A75C046BD4602B080BD80B59C
S214001D8082B000AF78607B6802229A75C046BD4676
S214001D9002B080BD80B582B000AF78607B689B7D66
S214001DA0DBB25B08012213405A1E9341DBB21800D7
S214001DB0BD4602B080BD80B582B000AF78600A0034
S214001DC0FB1C1A70FB1C1B7801225340DBB21BB1B4
S214001DD07B6802221A7502E07B6802229A75C0466A
S214001DE0BD4602B080BD80B582B000AF78607B682B
S214001DF002221A75C046BD4602B080BD80B582B0CC
S214001E0000AF78600A00FB1C1A70FB1C1B780122CE
S214001E105340DBB21BB17B6804221A7502E07B6874
S214001E2004229A75C046BD4602B080BD80B582B019
S214001E3000AF78600A00FB1C1A70FB1C1B7801229E
S214001E405340DBB21BB17B6880221A7502E07B68C8
S214001E5080229A75C046BD4602B080BD80B582B06D
S214001E6000AF78607B681B6802221A437B681A60A2
S214001E707B6803211800FFF7D4FEC046BD4602B0BB
S214001E8080BD80B582B000AF78607B681B68022298
S214001E9093431A007B681A607B6803211800FFF7DB
S214001EA0C0FEC046BD4602B080BD80B584B000AF5F
S214001EB0786039607B6803211800FFF7B2FE7B6804
S214001EC01B68FB60FB683A681340FB60FB68180001
S214001ED0BD4604B080BD80B582B000AF7860396082
S214001EE07B683A681A607B6803211800FFF799FE42
S214001EF0C046BD4602B080BD80B582B000AF7860F7
S214001F0039607B683A685A607B680F211800FFF7D3
S214001F1088FEC046BD4602B080BD80B582B000AF28
S214001F20786039607B683A689A60C046BD4602B001
S214001F3080BD80B582B000AF78600A00BB1C1A80F6
S214001F407B68BA1C12889A81C046BD4602B080BD26
S214001F5080B582B000AF78600A00FB1C1A707B6800
S214001F60FA1C12789A73C046BD4602B080BD80B592
S214001F7082B000AF78600A00BB1C1A807B68BA1C6F
S214001F8012881A85C046BD4602B080BD80B582B0B4
S214001F9000AF78607B681B8D9BB21800BD4602B010
S214001FA080BD80B582B000AF78600A00FB1C1A7056
S214001FB07B68FA1C302112785A54C046BD4602B0DF
S214001FC080BD80B582B000AF78600A00BB1C1A8066
S214001FD07B68BA1C12885A83C046BD4602B080BDD4
S214001FE080B582B000AF78607B685B8B9BB21800D0
S214001FF0BD4602B080BD90B587B000AF786039604E
S2140020007B685A1E9341D8B242F28073C0F2000336
S214002010CB221900FFF7EAF93B68180000F0BBF97D
S2140020200300FB60FB680BB1FB6836E07B683A6830
S2140020309A617A683B681100180000F096F9172339
S214002040FC183B68180000F0BDFA0300237000235C
S2140020503B611EE01723FB181B785BB21800FFF7E6
S2140020609AFD1723FB181B785BB21800FFF7B8FD24
S2140020701723FB181B785BB21800FFF76CFD1723BD
S214002080FB181A781723FB1801321A703B690133C4
S2140020903B613B69032BDDD900231800BD4607B022
S2140020A090BD80B582B000AF78607B689B691800F1
S2140020B0FFF7D4FEC046BD4602B080BD80B582B0F4
S2140020C000AF78600A00FB1C1A707B689A69FB1CDC
S2140020D01B789BB219001000FFF749FFC046BD46AB
S2140020E002B080BD80B582B000AF78607B689B6927
S2140020F01800FFF705FEC046BD4602B080BD80B59D
S21400210082B000AF78607B689B691800FFF737FEE7
S214002110C046BD4602B080BD90B587B000AF7860BF
S2140021200823FA1842F29C73C0F2000313CB13C2C2
S21400213000237B610EE00823FB187A699200D358CF
S2140021401A007B689A4202D17B69DBB206E07B69A3
S21400215001337B617B69022BEDD900231800BD4655
S21400216007B090BD80B582B000AF7860080011005F
S214002170FB1C021C1A70BB1C0A1C1A707B685A1EB9
S2140021809341D8B242F28073C0F2000340F22B2291
S2140021901900FFF72BF9FB1C1B781BB1FB1C1B78E7
S2140021A0022B10D17B689A69BB1C1B7819001000A3
S2140021B0FFF7C2FD7B689A69BB1C1B7819001000EC
S2140021C0FFF7F9FD18E0FB1C1B78012B08D17B6894
S2140021D09A69BB1C1B7819001000FFF70FFE0BE076
S2140021E0FB1C1B78032B07D17B689A69BB1C1B78EA
S2140021F019001000FFF71AFEC046BD4602B080BDAB
S21400220090B585B000AF78607B689B69FB60FB6823
S2140022101800FFF726FD03007BB1FB681800FFF7E8
S2140022207AFD03004BB1FB681800FFF79DFD7B6845
S2140022301B687A681000984753E0FB681800FFF7A1
S21400224021FD03007BB1FB681800FFF7A3FD030028
S2140022504BB1FB681800FFF7C6FD7B689B687A6881
S214002260100098473DE0FB681800FFF71CFD0300D0
S214002270DBB1FB681800FFF7B3FE03001A00372334
S21400228013402BB1FB68FF211800FFF79AFE28E0E9
S2140022907B685C68FB681800FFF778FE0300DAB21C
S2140022A07B6811001800A0471BE0FB681800FFF7CA
S2140022B00BFD0300ABB1FB681800FFF716FD7B684B
S2140022C0DB687A6810009847FB681800FFF788FEFE
S2140022D00300BB60BB689AB2FB6811001800FFF7EA
S2140022E070FEBD4605B090BD90B585B000AF786075
S2140022F00E23FC187B681800FFF70EFF0300237000
S2140023000F23FB1800221A701BE00F23FB18197806
S21400231040F20002C2F200020B005B005B18DB001A
S2140023209B5C0E22BA1812789A4203D10F23FB1830
S2140023301B7816E00F23FB181A780F23FB180132C0
S2140023401A700F23FB181B78002BDED042F2807326
S214002350C0F2000340F26B2219000020FFF746F897
S21400236000231800BD4605B090BD80B582B000AF12
S214002370786039607A6840F60043C4F200239A42D7
S21400238005D140F24803C2F200033A681A60C0461C
S214002390BD4602B080BD90B585B000AF78600F2313
S2140023A0FC187B681800FFF79FFF030023707B680C
S2140023B001211800FFF745FC03001A0001235340D3
S2140023C0DBB243B30F23FB18197840F20002C2F2C7
S2140023D000020B005B005B18DB00D31804331B689D
S2140023E01C221340BB607B6802211800FFF75DFDCE
S2140023F0030043B17B681800FFF743FD7B680221AA
S2140024001800FFF70EFCBB6801221A437B68110018
S2140024101800FFF760FD7B6801211800FFF701FC3C
S2140024200F23FB18197840F20002C2F200020B00DC
S2140024305B005B18DB00D31804331A687B68110056
S2140024401800FFF748FD0F23FB18197840F200022A
S214002450C2F200020B005B005B18DB00D3180833E7
S2140024601A687B6811001800FFF746FD0F23FB185B
S214002470197840F20002C2F200020B005B005B1803
S214002480DB00D3180C331A687B6811001800FFF7BE
S21400249044FD0F23FB18197840F20002C2F2000236
S2140024A00B005B005B18DB00D31804331B6842F29A
S2140024B0000213408BB90F23FB18197840F2000274
S2140024C0C2F200020B005B005B18DB00D31804337B
S2140024D01B6846F200021340B3B30F23FB181978AB
S2140024E040F20002C2F200020B005B005B18DB0049
S2140024F0D31810331B88DB04DB0C99B27A689389F7
S214002500C904C80C5B0B5B03191C031C0B439381AB
S2140025100F23FB18197840F20002C2F200020B00EB
S2140025205B005B18DB00D31812331B781A1C0723DA
S2140025301340D9B27A6893894803DB04DB0C191C74
S214002540031C0B43938112E00F23FB18197840F20B
S2140025500002C2F200020B005B005B18DB00D3181F
S21400256010331A887B6811001800FFF7E2FC0F236F
S214002570FB18197840F20002C2F200020B005B0062
S2140025805B18DB00D31813331A787B681100180029
S214002590FFF7DEFC0F23FB18197840F20002C2F2A8
S2140025A000020B005B005B18DB00D31814331A78AC
S2140025B07B6811001800FFF7F4FC00231800BD46E6
S2140025C005B090BD80B582B000AF78607B6818001B
S2140025D0FFF7A2FD03009B00DBB21633DBB2180048
S2140025E0BD4602B080BD80B500AF40F24803C2F2DF
S2140025F000031B681800FFF703FEC046BD4680BDFB
S21400260080B500AF40F24803C2F200031B68180012
S214002610FFF7F6FDC046BD4680BD80B500AF40F270
S2140026204803C2F200031B681800FFF7E9FDC04626
S214002630BD4680BD80B500AF40F24803C2F200033D
S2140026401B681800FFF7DCFDC046BD4680BD80B5A0
S21400265082B000AF786040F27403C2F20003012239
S2140026601A70C046BD4602B080BD000070B5002599
S2140026700E4B0F4CE41AA410A54209D1002500F019
S2140026809DF80C4C0C4BE41AA410A54207D170BD63
S214002690064AAB009B181B6898470135ECE7064ACC
S2140026A0AB009B181B6898470135EEE7C82700006B
S2140026B0C8270000CC270000C82700002E2E2F6851
S2140026C0706C2F706F72742F68706C5F6770696FB4
S2140026D05F626173652E68002E2E2F68706C2F70F7
S2140026E06F72742F68706C5F6770696F5F6261737A
S2140026F0652E68002E2E2F68616C2F7372632F680C
S214002700616C5F75736172745F6173796E632E635B
S214002710000000002E2E2F68616C2F7574696C7394
S2140027202F7372632F7574696C735F72696E67625C
S21400273075666665722E63002E2E2F68706C2F638A
S2140027406F72652F68706C5F636F72655F6D323392
S2140027505F626173652E6300341600001616000073
S214002760F6150000D8150000BA1500002417000062
S2140027700C170000F2160000D0160000AE1600007F
S2140027802E2E2F68706C2F736572636F6D2F6870B6
S2140027906C5F736572636F6D2E6300000004004209
S2140027A000080042000C004200000000000000008C
S2140027B0000000000000000000000000F8B5C04661
S2140027C0F8BC08BC9E46704721010000F8B5C0461C
S2100027D0F8BC08BC9E467047F5000000F0
S2140027DC02000000040031400000030002007000FC
S20C0027EC2BF6000000000000BF
S2148040003F438FB0BB180000FF00087F0100000010
S214804010000000000000000000000000000000001B
S804000000FB
